{
  "_format": "hh-sol-artifact-1",
  "contractName": "TokenExchange",
  "sourceName": "contracts/exchange.sol",
  "abi": [
    {
      "inputs": [],
      "stateMutability": "nonpayable",
      "type": "constructor"
    },
    {
      "anonymous": false,
      "inputs": [
        {
          "indexed": true,
          "internalType": "address",
          "name": "previousOwner",
          "type": "address"
        },
        {
          "indexed": true,
          "internalType": "address",
          "name": "newOwner",
          "type": "address"
        }
      ],
      "name": "OwnershipTransferred",
      "type": "event"
    },
    {
      "inputs": [],
      "name": "addLiquidity",
      "outputs": [],
      "stateMutability": "payable",
      "type": "function"
    },
    {
      "inputs": [
        {
          "internalType": "uint256",
          "name": "amountTokens",
          "type": "uint256"
        }
      ],
      "name": "createPool",
      "outputs": [],
      "stateMutability": "payable",
      "type": "function"
    },
    {
      "inputs": [],
      "name": "exchange_name",
      "outputs": [
        {
          "internalType": "string",
          "name": "",
          "type": "string"
        }
      ],
      "stateMutability": "view",
      "type": "function"
    },
    {
      "inputs": [],
      "name": "getReserves",
      "outputs": [
        {
          "internalType": "uint256",
          "name": "",
          "type": "uint256"
        },
        {
          "internalType": "uint256",
          "name": "",
          "type": "uint256"
        }
      ],
      "stateMutability": "view",
      "type": "function"
    },
    {
      "inputs": [],
      "name": "getSwapFee",
      "outputs": [
        {
          "internalType": "uint256",
          "name": "",
          "type": "uint256"
        },
        {
          "internalType": "uint256",
          "name": "",
          "type": "uint256"
        }
      ],
      "stateMutability": "view",
      "type": "function"
    },
    {
      "inputs": [],
      "name": "owner",
      "outputs": [
        {
          "internalType": "address",
          "name": "",
          "type": "address"
        }
      ],
      "stateMutability": "view",
      "type": "function"
    },
    {
      "inputs": [],
      "name": "removeAllLiquidity",
      "outputs": [],
      "stateMutability": "payable",
      "type": "function"
    },
    {
      "inputs": [
        {
          "internalType": "uint256",
          "name": "amountETH",
          "type": "uint256"
        }
      ],
      "name": "removeLiquidity",
      "outputs": [],
      "stateMutability": "payable",
      "type": "function"
    },
    {
      "inputs": [],
      "name": "renounceOwnership",
      "outputs": [],
      "stateMutability": "nonpayable",
      "type": "function"
    },
    {
      "inputs": [
        {
          "internalType": "uint256",
          "name": "amountTokens",
          "type": "uint256"
        }
      ],
      "name": "swapETHForTokens",
      "outputs": [],
      "stateMutability": "payable",
      "type": "function"
    },
    {
      "inputs": [],
      "name": "swapTokensForETH",
      "outputs": [],
      "stateMutability": "payable",
      "type": "function"
    },
    {
      "inputs": [],
      "name": "token",
      "outputs": [
        {
          "internalType": "contract Token",
          "name": "",
          "type": "address"
        }
      ],
      "stateMutability": "view",
      "type": "function"
    },
    {
      "inputs": [
        {
          "internalType": "address",
          "name": "newOwner",
          "type": "address"
        }
      ],
      "name": "transferOwnership",
      "outputs": [],
      "stateMutability": "nonpayable",
      "type": "function"
    }
  ],
  "bytecode": "0x60806040526040518060400160405280600881526020017f454e444f53574150000000000000000000000000000000000000000000000000815250600190816200004a9190620004b1565b50735fbdb2315678afecb367f032d93f642f64180aa3600260006101000a81548173ffffffffffffffffffffffffffffffffffffffff021916908373ffffffffffffffffffffffffffffffffffffffff160217905550600260009054906101000a900473ffffffffffffffffffffffffffffffffffffffff16600360006101000a81548173ffffffffffffffffffffffffffffffffffffffff021916908373ffffffffffffffffffffffffffffffffffffffff1602179055506000600455600060055560016006556001600755600060085560006009556000600c556003600d556064600e55620186a06010553480156200014457600080fd5b5062000165620001596200016b60201b60201c565b6200017360201b60201c565b62000598565b600033905090565b60008060009054906101000a900473ffffffffffffffffffffffffffffffffffffffff169050816000806101000a81548173ffffffffffffffffffffffffffffffffffffffff021916908373ffffffffffffffffffffffffffffffffffffffff1602179055508173ffffffffffffffffffffffffffffffffffffffff168173ffffffffffffffffffffffffffffffffffffffff167f8be0079c531659141344cd1fd0a4f28419497f9722a3daafe3b4186f6b6457e060405160405180910390a35050565b600081519050919050565b7f4e487b7100000000000000000000000000000000000000000000000000000000600052604160045260246000fd5b7f4e487b7100000000000000000000000000000000000000000000000000000000600052602260045260246000fd5b60006002820490506001821680620002b957607f821691505b602082108103620002cf57620002ce62000271565b5b50919050565b60008190508160005260206000209050919050565b60006020601f8301049050919050565b600082821b905092915050565b600060088302620003397fffffffffffffffffffffffffffffffffffffffffffffffffffffffffffffffff82620002fa565b620003458683620002fa565b95508019841693508086168417925050509392505050565b6000819050919050565b6000819050919050565b6000620003926200038c62000386846200035d565b62000367565b6200035d565b9050919050565b6000819050919050565b620003ae8362000371565b620003c6620003bd8262000399565b84845462000307565b825550505050565b600090565b620003dd620003ce565b620003ea818484620003a3565b505050565b5b81811015620004125762000406600082620003d3565b600181019050620003f0565b5050565b601f82111562000461576200042b81620002d5565b6200043684620002ea565b8101602085101562000446578190505b6200045e6200045585620002ea565b830182620003ef565b50505b505050565b600082821c905092915050565b6000620004866000198460080262000466565b1980831691505092915050565b6000620004a1838362000473565b9150826002028217905092915050565b620004bc8262000237565b67ffffffffffffffff811115620004d857620004d762000242565b5b620004e48254620002a0565b620004f182828562000416565b600060209050601f83116001811462000529576000841562000514578287015190505b62000520858262000493565b86555062000590565b601f1984166200053986620002d5565b60005b8281101562000563578489015182556001820191506020850194506020810190506200053c565b868310156200058357848901516200057f601f89168262000473565b8355505b6001600288020188555050505b505050505050565b61206f80620005a86000396000f3fe6080604052600436106100c25760003560e01c80639c8f9f231161007f578063e8078d9411610059578063e8078d94146101c9578063f2fde38b146101d3578063f694f7d1146101fc578063fc0c546a14610227576100c2565b80639c8f9f2314610177578063c747c53314610193578063d4cadf681461019d576100c2565b80630902f1ac146100c75780632eab2841146100f3578063715018a61461010f5780638259e6a01461012657806388a780e5146101425780638da5cb5b1461014c575b600080fd5b3480156100d357600080fd5b506100dc610252565b6040516100ea9291906115b8565b60405180910390f35b61010d60048036038101906101089190611612565b6102e5565b005b34801561011b57600080fd5b5061012461046d565b005b610140600480360381019061013b9190611612565b610481565b005b61014a61085d565b005b34801561015857600080fd5b50610161610b1f565b60405161016e9190611680565b60405180910390f35b610191600480360381019061018c9190611612565b610b48565b005b61019b610de0565b005b3480156101a957600080fd5b506101b2610f6b565b6040516101c09291906115b8565b60405180910390f35b6101d1610f7c565b005b3480156101df57600080fd5b506101fa60048036038101906101f591906116c7565b611199565b005b34801561020857600080fd5b5061021161121c565b60405161021e9190611784565b60405180910390f35b34801561023357600080fd5b5061023c6112aa565b6040516102499190611805565b60405180910390f35b6000806102966040518060400160405280600d81526020017f45544820726573657276657320000000000000000000000000000000000000008152506005546112d0565b6102d76040518060400160405280600d81526020017f454e444f207265736572766573000000000000000000000000000000000000008152506004546112d0565b600554600454915091509091565b6000600754826102f5919061184f565b90506000816005546103079190611891565b90506000811161031657600080fd5b6000600360009054906101000a900473ffffffffffffffffffffffffffffffffffffffff1673ffffffffffffffffffffffffffffffffffffffff166323b872dd3330876040518463ffffffff1660e01b8152600401610377939291906118c5565b6020604051808303816000875af1158015610396573d6000803e3d6000fd5b505050506040513d601f19601f820116820180604052508101906103ba9190611934565b9050806103c657600080fd5b83600460008282546103d89190611961565b92505081905550816005819055506005546004546103f691906119c4565b60068190555060045460055461040c91906119c4565b600781905550600554600454610422919061184f565b600f819055506104676040518060400160405280601181526020017f4e65772045544820726573657276653a20000000000000000000000000000000815250836112d0565b50505050565b61047561136c565b61047f60006113ea565b565b61048961136c565b6000600454146104ce576040517f08c379a00000000000000000000000000000000000000000000000000000000081526004016104c590611a41565b60405180910390fd5b600060055414610513576040517f08c379a000000000000000000000000000000000000000000000000000000000815260040161050a90611aad565b60405180910390fd5b60003411610556576040517f08c379a000000000000000000000000000000000000000000000000000000000815260040161054d90611b19565b60405180910390fd5b6000600360009054906101000a900473ffffffffffffffffffffffffffffffffffffffff1673ffffffffffffffffffffffffffffffffffffffff166370a08231336040518263ffffffff1660e01b81526004016105b39190611680565b602060405180830381865afa1580156105d0573d6000803e3d6000fd5b505050506040513d601f19601f820116820180604052508101906105f49190611b4e565b905080821115610639576040517f08c379a000000000000000000000000000000000000000000000000000000000815260040161063090611bed565b60405180910390fd5b6000821161067c576040517f08c379a000000000000000000000000000000000000000000000000000000000815260040161067390611c59565b60405180910390fd5b600360009054906101000a900473ffffffffffffffffffffffffffffffffffffffff1673ffffffffffffffffffffffffffffffffffffffff166323b872dd3330856040518463ffffffff1660e01b81526004016106db939291906118c5565b6020604051808303816000875af11580156106fa573d6000803e3d6000fd5b505050506040513d601f19601f8201168201806040525081019061071e9190611934565b50600360009054906101000a900473ffffffffffffffffffffffffffffffffffffffff1673ffffffffffffffffffffffffffffffffffffffff166370a08231306040518263ffffffff1660e01b815260040161077a9190611680565b602060405180830381865afa158015610797573d6000803e3d6000fd5b505050506040513d601f19601f820116820180604052508101906107bb9190611b4e565b600481905550346005819055506005546004546107d8919061184f565b600f81905550620186a0600c819055506064600a60003373ffffffffffffffffffffffffffffffffffffffff1673ffffffffffffffffffffffffffffffffffffffff1681526020019081526020016000208190555060055460045461083d91906119c4565b60068190555060045460055461085391906119c4565b6007819055505050565b6000600a60003373ffffffffffffffffffffffffffffffffffffffff1673ffffffffffffffffffffffffffffffffffffffff168152602001908152602001600020546004546108ac9190611891565b9050600081116108f1576040517f08c379a00000000000000000000000000000000000000000000000000000000081526004016108e890611cc5565b60405180910390fd5b6000600754600a60003373ffffffffffffffffffffffffffffffffffffffff1673ffffffffffffffffffffffffffffffffffffffff16815260200190815260200160002054610940919061184f565b90506000816005546109529190611891565b905060008111610997576040517f08c379a000000000000000000000000000000000000000000000000000000000815260040161098e90611d31565b60405180910390fd5b6000600360009054906101000a900473ffffffffffffffffffffffffffffffffffffffff1673ffffffffffffffffffffffffffffffffffffffff1663a9059cbb33600a60003373ffffffffffffffffffffffffffffffffffffffff1673ffffffffffffffffffffffffffffffffffffffff168152602001908152602001600020546040518363ffffffff1660e01b8152600401610a35929190611d51565b6020604051808303816000875af1158015610a54573d6000803e3d6000fd5b505050506040513d601f19601f82011682018060405250810190610a789190611934565b905080610a8457600080fd5b6000600a60003373ffffffffffffffffffffffffffffffffffffffff1673ffffffffffffffffffffffffffffffffffffffff168152602001908152602001600020819055508360048190555081600581905550600554600454610ae791906119c4565b600681905550600454600554610afd91906119c4565b600781905550600554600454610b13919061184f565b600f8190555050505050565b60008060009054906101000a900473ffffffffffffffffffffffffffffffffffffffff16905090565b600060065482610b58919061184f565b9050600a60003373ffffffffffffffffffffffffffffffffffffffff1673ffffffffffffffffffffffffffffffffffffffff168152602001908152602001600020548110610bdb576040517f08c379a0000000000000000000000000000000000000000000000000000000008152600401610bd290611dc6565b60405180910390fd5b600081600454610beb9190611891565b905060008111610c30576040517f08c379a0000000000000000000000000000000000000000000000000000000008152600401610c2790611e32565b60405180910390fd5b600083600554610c409190611891565b905060008111610c85576040517f08c379a0000000000000000000000000000000000000000000000000000000008152600401610c7c90611d31565b60405180910390fd5b6000600360009054906101000a900473ffffffffffffffffffffffffffffffffffffffff1673ffffffffffffffffffffffffffffffffffffffff1663a9059cbb33866040518363ffffffff1660e01b8152600401610ce4929190611d51565b6020604051808303816000875af1158015610d03573d6000803e3d6000fd5b505050506040513d601f19601f82011682018060405250810190610d279190611934565b905080610d3357600080fd5b83600a60003373ffffffffffffffffffffffffffffffffffffffff1673ffffffffffffffffffffffffffffffffffffffff1681526020019081526020016000206000828254610d829190611891565b925050819055508260048190555081600581905550600554600454610da791906119c4565b600681905550600454600554610dbd91906119c4565b600781905550600554600454610dd3919061184f565b600f819055505050505050565b6000349050600060065482610df5919061184f565b9050600081600454610e079190611891565b905060008111610e1657600080fd5b6000600360009054906101000a900473ffffffffffffffffffffffffffffffffffffffff1673ffffffffffffffffffffffffffffffffffffffff1663a9059cbb33856040518363ffffffff1660e01b8152600401610e75929190611d51565b6020604051808303816000875af1158015610e94573d6000803e3d6000fd5b505050506040513d601f19601f82011682018060405250810190610eb89190611934565b905080610ec457600080fd5b816004819055508360056000828254610edd9190611961565b92505081905550600554600454610ef491906119c4565b600681905550600454600554610f0a91906119c4565b600781905550600554600454610f20919061184f565b600f81905550610f656040518060400160405280601281526020017f4e657720454e444f20726573657276653a200000000000000000000000000000815250836112d0565b50505050565b600080600d54600e54915091509091565b6000349050600060065482610f91919061184f565b9050610fd26040518060400160405280601181526020017f4554485320696e6772657361646f733a20000000000000000000000000000000815250836112d0565b6110116040518060400160405280601381526020017f454e444f5320636f6e7665727469646f733a2000000000000000000000000000815250826112d0565b6000600360009054906101000a900473ffffffffffffffffffffffffffffffffffffffff1673ffffffffffffffffffffffffffffffffffffffff166323b872dd3330856040518463ffffffff1660e01b8152600401611072939291906118c5565b6020604051808303816000875af1158015611091573d6000803e3d6000fd5b505050506040513d601f19601f820116820180604052508101906110b59190611934565b90506110c0816114ae565b806110ca57600080fd5b81600a60003373ffffffffffffffffffffffffffffffffffffffff1673ffffffffffffffffffffffffffffffffffffffff16815260200190815260200160002060008282546111199190611961565b9250508190555082600560008282546111329190611961565b92505081905550816004600082825461114b9190611961565b9250508190555060055460045461116291906119c4565b60068190555060045460055461117891906119c4565b60078190555060045460055461118e919061184f565b600f81905550505050565b6111a161136c565b600073ffffffffffffffffffffffffffffffffffffffff168173ffffffffffffffffffffffffffffffffffffffff1603611210576040517f08c379a000000000000000000000000000000000000000000000000000000000815260040161120790611ec4565b60405180910390fd5b611219816113ea565b50565b6001805461122990611f13565b80601f016020809104026020016040519081016040528092919081815260200182805461125590611f13565b80156112a25780601f10611277576101008083540402835291602001916112a2565b820191906000526020600020905b81548152906001019060200180831161128557829003601f168201915b505050505081565b600360009054906101000a900473ffffffffffffffffffffffffffffffffffffffff1681565b61136882826040516024016112e6929190611f44565b6040516020818303038152906040527fb60e72cc000000000000000000000000000000000000000000000000000000007bffffffffffffffffffffffffffffffffffffffffffffffffffffffff19166020820180517bffffffffffffffffffffffffffffffffffffffffffffffffffffffff8381831617835250505050611547565b5050565b611374611561565b73ffffffffffffffffffffffffffffffffffffffff16611392610b1f565b73ffffffffffffffffffffffffffffffffffffffff16146113e8576040517f08c379a00000000000000000000000000000000000000000000000000000000081526004016113df90611fc0565b60405180910390fd5b565b60008060009054906101000a900473ffffffffffffffffffffffffffffffffffffffff169050816000806101000a81548173ffffffffffffffffffffffffffffffffffffffff021916908373ffffffffffffffffffffffffffffffffffffffff1602179055508173ffffffffffffffffffffffffffffffffffffffff168173ffffffffffffffffffffffffffffffffffffffff167f8be0079c531659141344cd1fd0a4f28419497f9722a3daafe3b4186f6b6457e060405160405180910390a35050565b611544816040516024016114c29190611fef565b6040516020818303038152906040527f32458eed000000000000000000000000000000000000000000000000000000007bffffffffffffffffffffffffffffffffffffffffffffffffffffffff19166020820180517bffffffffffffffffffffffffffffffffffffffffffffffffffffffff8381831617835250505050611547565b50565b61155e8161155661156961158a565b63ffffffff16565b50565b600033905090565b60006a636f6e736f6c652e6c6f679050600080835160208501845afa505050565b611595819050919050565b61159d61200a565b565b6000819050919050565b6115b28161159f565b82525050565b60006040820190506115cd60008301856115a9565b6115da60208301846115a9565b9392505050565b600080fd5b6115ef8161159f565b81146115fa57600080fd5b50565b60008135905061160c816115e6565b92915050565b600060208284031215611628576116276115e1565b5b6000611636848285016115fd565b91505092915050565b600073ffffffffffffffffffffffffffffffffffffffff82169050919050565b600061166a8261163f565b9050919050565b61167a8161165f565b82525050565b60006020820190506116956000830184611671565b92915050565b6116a48161165f565b81146116af57600080fd5b50565b6000813590506116c18161169b565b92915050565b6000602082840312156116dd576116dc6115e1565b5b60006116eb848285016116b2565b91505092915050565b600081519050919050565b600082825260208201905092915050565b60005b8381101561172e578082015181840152602081019050611713565b60008484015250505050565b6000601f19601f8301169050919050565b6000611756826116f4565b61176081856116ff565b9350611770818560208601611710565b6117798161173a565b840191505092915050565b6000602082019050818103600083015261179e818461174b565b905092915050565b6000819050919050565b60006117cb6117c66117c18461163f565b6117a6565b61163f565b9050919050565b60006117dd826117b0565b9050919050565b60006117ef826117d2565b9050919050565b6117ff816117e4565b82525050565b600060208201905061181a60008301846117f6565b92915050565b7f4e487b7100000000000000000000000000000000000000000000000000000000600052601160045260246000fd5b600061185a8261159f565b91506118658361159f565b92508282026118738161159f565b9150828204841483151761188a57611889611820565b5b5092915050565b600061189c8261159f565b91506118a78361159f565b92508282039050818111156118bf576118be611820565b5b92915050565b60006060820190506118da6000830186611671565b6118e76020830185611671565b6118f460408301846115a9565b949350505050565b60008115159050919050565b611911816118fc565b811461191c57600080fd5b50565b60008151905061192e81611908565b92915050565b60006020828403121561194a576119496115e1565b5b60006119588482850161191f565b91505092915050565b600061196c8261159f565b91506119778361159f565b925082820190508082111561198f5761198e611820565b5b92915050565b7f4e487b7100000000000000000000000000000000000000000000000000000000600052601260045260246000fd5b60006119cf8261159f565b91506119da8361159f565b9250826119ea576119e9611995565b5b828204905092915050565b7f546f6b656e20726573657276657320776173206e6f7420300000000000000000600082015250565b6000611a2b6018836116ff565b9150611a36826119f5565b602082019050919050565b60006020820190508181036000830152611a5a81611a1e565b9050919050565b7f45544820726573657276657320776173206e6f7420302e000000000000000000600082015250565b6000611a976017836116ff565b9150611aa282611a61565b602082019050919050565b60006020820190508181036000830152611ac681611a8a565b9050919050565b7f4e6565642065746820746f2063726561746520706f6f6c2e0000000000000000600082015250565b6000611b036018836116ff565b9150611b0e82611acd565b602082019050919050565b60006020820190508181036000830152611b3281611af6565b9050919050565b600081519050611b48816115e6565b92915050565b600060208284031215611b6457611b636115e1565b5b6000611b7284828501611b39565b91505092915050565b7f4e6f74206861766520656e6f75676820746f6b656e7320746f2063726561746560008201527f2074686520706f6f6c0000000000000000000000000000000000000000000000602082015250565b6000611bd76029836116ff565b9150611be282611b7b565b604082019050919050565b60006020820190508181036000830152611c0681611bca565b9050919050565b7f4e65656420746f6b656e7320746f2063726561746520706f6f6c2e0000000000600082015250565b6000611c43601b836116ff565b9150611c4e82611c0d565b602082019050919050565b60006020820190508181036000830152611c7281611c36565b9050919050565b7f4e6f2068617920737566696369656e746520456e646f00000000000000000000600082015250565b6000611caf6016836116ff565b9150611cba82611c79565b602082019050919050565b60006020820190508181036000830152611cde81611ca2565b9050919050565b7f4e6f2068617920737566696369656e7465204574680000000000000000000000600082015250565b6000611d1b6015836116ff565b9150611d2682611ce5565b602082019050919050565b60006020820190508181036000830152611d4a81611d0e565b9050919050565b6000604082019050611d666000830185611671565b611d7360208301846115a9565b9392505050565b7f50726f76696465722073696e206c697175696465730000000000000000000000600082015250565b6000611db06015836116ff565b9150611dbb82611d7a565b602082019050919050565b60006020820190508181036000830152611ddf81611da3565b9050919050565b7f4e6f2068617920737566696369656e746520456e646f2e000000000000000000600082015250565b6000611e1c6017836116ff565b9150611e2782611de6565b602082019050919050565b60006020820190508181036000830152611e4b81611e0f565b9050919050565b7f4f776e61626c653a206e6577206f776e657220697320746865207a65726f206160008201527f6464726573730000000000000000000000000000000000000000000000000000602082015250565b6000611eae6026836116ff565b9150611eb982611e52565b604082019050919050565b60006020820190508181036000830152611edd81611ea1565b9050919050565b7f4e487b7100000000000000000000000000000000000000000000000000000000600052602260045260246000fd5b60006002820490506001821680611f2b57607f821691505b602082108103611f3e57611f3d611ee4565b5b50919050565b60006040820190508181036000830152611f5e818561174b565b9050611f6d60208301846115a9565b9392505050565b7f4f776e61626c653a2063616c6c6572206973206e6f7420746865206f776e6572600082015250565b6000611faa6020836116ff565b9150611fb582611f74565b602082019050919050565b60006020820190508181036000830152611fd981611f9d565b9050919050565b611fe9816118fc565b82525050565b60006020820190506120046000830184611fe0565b92915050565b7f4e487b7100000000000000000000000000000000000000000000000000000000600052605160045260246000fdfea26469706673582212206e48f6ec5c8c29881046f14fb8a6c2fa9e62a71089c3ab30fb865d2415e1f1ad64736f6c63430008110033",
  "linkReferences": {},
  "deployedLinkReferences": {}
}