{
  "_format": "hh-sol-artifact-1",
  "contractName": "Splitwise",
  "sourceName": "contracts/mycontract.sol",
  "abi": [
    {
      "inputs": [
        {
          "internalType": "address",
          "name": "acreedor",
          "type": "address"
        },
        {
          "internalType": "uint256",
          "name": "monto",
          "type": "uint256"
        },
        {
          "internalType": "address",
          "name": "deudor",
          "type": "address"
        }
      ],
      "name": "add_IOU",
      "outputs": [],
      "stateMutability": "nonpayable",
      "type": "function"
    },
    {
      "inputs": [
        {
          "internalType": "address[]",
          "name": "lista",
          "type": "address[]"
        },
        {
          "internalType": "address",
          "name": "user",
          "type": "address"
        }
      ],
      "name": "addressExisteEnLista",
      "outputs": [
        {
          "internalType": "bool",
          "name": "",
          "type": "bool"
        }
      ],
      "stateMutability": "pure",
      "type": "function"
    },
    {
      "inputs": [
        {
          "internalType": "address",
          "name": "user",
          "type": "address"
        }
      ],
      "name": "getLastActive",
      "outputs": [
        {
          "internalType": "uint256",
          "name": "",
          "type": "uint256"
        }
      ],
      "stateMutability": "view",
      "type": "function"
    },
    {
      "inputs": [
        {
          "internalType": "address",
          "name": "deudor",
          "type": "address"
        }
      ],
      "name": "getTotalOwed",
      "outputs": [
        {
          "internalType": "uint256",
          "name": "",
          "type": "uint256"
        }
      ],
      "stateMutability": "view",
      "type": "function"
    },
    {
      "inputs": [],
      "name": "getUsers",
      "outputs": [
        {
          "internalType": "address[]",
          "name": "",
          "type": "address[]"
        }
      ],
      "stateMutability": "view",
      "type": "function"
    }
  ],
  "bytecode": "0x6080604052348015600f57600080fd5b50610cf98061001f6000396000f3fe608060405234801561001057600080fd5b50600436106100565760003560e01c8062ce8e3e1461005b5780632ea57ce714610079578063606ab7521461009557806373851075146100c5578063746bd4cf146100f5575b600080fd5b610063610125565b6040516100709190610904565b60405180910390f35b610093600480360381019061008e919061099c565b6101b3565b005b6100af60048036038101906100aa91906109ef565b6105d3565b6040516100bc9190610a2b565b60405180910390f35b6100df60048036038101906100da91906109ef565b61061c565b6040516100ec9190610a2b565b60405180910390f35b61010f600480360381019061010a9190610b9f565b610796565b60405161011c9190610c16565b60405180910390f35b606060028054806020026020016040519081016040528092919081815260200182805480156101a957602002820191906000526020600020905b8160009054906101000a900473ffffffffffffffffffffffffffffffffffffffff1673ffffffffffffffffffffffffffffffffffffffff168152602001906001019080831161015f575b5050505050905090565b816000808373ffffffffffffffffffffffffffffffffffffffff1673ffffffffffffffffffffffffffffffffffffffff16815260200190815260200160002060008573ffffffffffffffffffffffffffffffffffffffff1673ffffffffffffffffffffffffffffffffffffffff168152602001908152602001600020600082825461023e9190610c60565b9250508190555042600360008373ffffffffffffffffffffffffffffffffffffffff1673ffffffffffffffffffffffffffffffffffffffff168152602001908152602001600020819055506000600160008373ffffffffffffffffffffffffffffffffffffffff1673ffffffffffffffffffffffffffffffffffffffff1681526020019081526020016000209050600061035d8280548060200260200160405190810160405280929190818152602001828054801561035257602002820191906000526020600020905b8160009054906101000a900473ffffffffffffffffffffffffffffffffffffffff1673ffffffffffffffffffffffffffffffffffffffff1681526020019060010190808311610308575b505050505084610796565b905060001515811515036103ce5781859080600181540180825580915050600190039060005260206000200160009091909190916101000a81548173ffffffffffffffffffffffffffffffffffffffff021916908373ffffffffffffffffffffffffffffffffffffffff1602179055505b60001515610462600280548060200260200160405190810160405280929190818152602001828054801561045757602002820191906000526020600020905b8160009054906101000a900473ffffffffffffffffffffffffffffffffffffffff1673ffffffffffffffffffffffffffffffffffffffff168152602001906001019080831161040d575b505050505085610796565b1515036104cd576002839080600181540180825580915050600190039060005260206000200160009091909190916101000a81548173ffffffffffffffffffffffffffffffffffffffff021916908373ffffffffffffffffffffffffffffffffffffffff1602179055505b60001515610561600280548060200260200160405190810160405280929190818152602001828054801561055657602002820191906000526020600020905b8160009054906101000a900473ffffffffffffffffffffffffffffffffffffffff1673ffffffffffffffffffffffffffffffffffffffff168152602001906001019080831161050c575b505050505087610796565b1515036105cc576002859080600181540180825580915050600190039060005260206000200160009091909190916101000a81548173ffffffffffffffffffffffffffffffffffffffff021916908373ffffffffffffffffffffffffffffffffffffffff1602179055505b5050505050565b6000600360008373ffffffffffffffffffffffffffffffffffffffff1673ffffffffffffffffffffffffffffffffffffffff168152602001908152602001600020549050919050565b600080600160008473ffffffffffffffffffffffffffffffffffffffff1673ffffffffffffffffffffffffffffffffffffffff1681526020019081526020016000208054905090506000600160008573ffffffffffffffffffffffffffffffffffffffff1673ffffffffffffffffffffffffffffffffffffffff1681526020019081526020016000209050600080600090505b8381101561078a576000808773ffffffffffffffffffffffffffffffffffffffff1673ffffffffffffffffffffffffffffffffffffffff168152602001908152602001600020600084838154811061070a57610709610c94565b5b9060005260206000200160009054906101000a900473ffffffffffffffffffffffffffffffffffffffff1673ffffffffffffffffffffffffffffffffffffffff1673ffffffffffffffffffffffffffffffffffffffff168152602001908152602001600020548261077b9190610c60565b915080806001019150506106af565b50809350505050919050565b600080835190506000805b82811015610808578473ffffffffffffffffffffffffffffffffffffffff168682815181106107d3576107d2610c94565b5b602002602001015173ffffffffffffffffffffffffffffffffffffffff16036107fb57600191505b80806001019150506107a1565b50809250505092915050565b600081519050919050565b600082825260208201905092915050565b6000819050602082019050919050565b600073ffffffffffffffffffffffffffffffffffffffff82169050919050565b600061086b82610840565b9050919050565b61087b81610860565b82525050565b600061088d8383610872565b60208301905092915050565b6000602082019050919050565b60006108b182610814565b6108bb818561081f565b93506108c683610830565b8060005b838110156108f75781516108de8882610881565b97506108e983610899565b9250506001810190506108ca565b5085935050505092915050565b6000602082019050818103600083015261091e81846108a6565b905092915050565b6000604051905090565b600080fd5b600080fd5b61094381610860565b811461094e57600080fd5b50565b6000813590506109608161093a565b92915050565b6000819050919050565b61097981610966565b811461098457600080fd5b50565b60008135905061099681610970565b92915050565b6000806000606084860312156109b5576109b4610930565b5b60006109c386828701610951565b93505060206109d486828701610987565b92505060406109e586828701610951565b9150509250925092565b600060208284031215610a0557610a04610930565b5b6000610a1384828501610951565b91505092915050565b610a2581610966565b82525050565b6000602082019050610a406000830184610a1c565b92915050565b600080fd5b6000601f19601f8301169050919050565b7f4e487b7100000000000000000000000000000000000000000000000000000000600052604160045260246000fd5b610a9482610a4b565b810181811067ffffffffffffffff82111715610ab357610ab2610a5c565b5b80604052505050565b6000610ac6610926565b9050610ad28282610a8b565b919050565b600067ffffffffffffffff821115610af257610af1610a5c565b5b602082029050602081019050919050565b600080fd5b6000610b1b610b1684610ad7565b610abc565b90508083825260208201905060208402830185811115610b3e57610b3d610b03565b5b835b81811015610b675780610b538882610951565b845260208401935050602081019050610b40565b5050509392505050565b600082601f830112610b8657610b85610a46565b5b8135610b96848260208601610b08565b91505092915050565b60008060408385031215610bb657610bb5610930565b5b600083013567ffffffffffffffff811115610bd457610bd3610935565b5b610be085828601610b71565b9250506020610bf185828601610951565b9150509250929050565b60008115159050919050565b610c1081610bfb565b82525050565b6000602082019050610c2b6000830184610c07565b92915050565b7f4e487b7100000000000000000000000000000000000000000000000000000000600052601160045260246000fd5b6000610c6b82610966565b9150610c7683610966565b9250828201905080821115610c8e57610c8d610c31565b5b92915050565b7f4e487b7100000000000000000000000000000000000000000000000000000000600052603260045260246000fdfea2646970667358221220e6be87b3718d5e65dbbcc50c6d0aa8619b07edabe269c421a01abfddba0fbb5f64736f6c634300081a0033",
  "linkReferences": {},
  "deployedLinkReferences": {}
}