{
  "_format": "hh-sol-artifact-1",
  "contractName": "Splitwise",
  "sourceName": "contracts/mycontract.sol",
  "abi": [
    {
      "inputs": [
        {
          "internalType": "address",
          "name": "creditor",
          "type": "address"
        },
        {
          "internalType": "uint32",
          "name": "amount",
          "type": "uint32"
        }
      ],
      "name": "add_IOU",
      "outputs": [],
      "stateMutability": "nonpayable",
      "type": "function"
    },
    {
      "inputs": [
        {
          "internalType": "address",
          "name": "",
          "type": "address"
        },
        {
          "internalType": "address",
          "name": "",
          "type": "address"
        }
      ],
      "name": "debts",
      "outputs": [
        {
          "internalType": "uint32",
          "name": "amount",
          "type": "uint32"
        }
      ],
      "stateMutability": "view",
      "type": "function"
    },
    {
      "inputs": [
        {
          "internalType": "address",
          "name": "debtor",
          "type": "address"
        },
        {
          "internalType": "address",
          "name": "creditor",
          "type": "address"
        }
      ],
      "name": "lookup",
      "outputs": [
        {
          "internalType": "uint32",
          "name": "",
          "type": "uint32"
        }
      ],
      "stateMutability": "view",
      "type": "function"
    }
  ],
  "bytecode": "0x608060405234801561001057600080fd5b50610501806100206000396000f3fe608060405234801561001057600080fd5b50600436106100415760003560e01c80634ac1c33d14610046578063713584a614610076578063d12099e4146100a6575b600080fd5b610060600480360381019061005b9190610301565b6100c2565b60405161006d9190610360565b60405180910390f35b610090600480360381019061008b9190610301565b6100fd565b60405161009d9190610360565b60405180910390f35b6100c060048036038101906100bb91906103a7565b610196565b005b6000602052816000526040600020602052806000526040600020600091509150508060000160009054906101000a900463ffffffff16905081565b60008060008473ffffffffffffffffffffffffffffffffffffffff1673ffffffffffffffffffffffffffffffffffffffff16815260200190815260200160002060008373ffffffffffffffffffffffffffffffffffffffff1673ffffffffffffffffffffffffffffffffffffffff16815260200190815260200160002060000160009054906101000a900463ffffffff16905092915050565b60008163ffffffff16116101df576040517f08c379a00000000000000000000000000000000000000000000000000000000081526004016101d690610444565b60405180910390fd5b806000803373ffffffffffffffffffffffffffffffffffffffff1673ffffffffffffffffffffffffffffffffffffffff16815260200190815260200160002060008473ffffffffffffffffffffffffffffffffffffffff1673ffffffffffffffffffffffffffffffffffffffff16815260200190815260200160002060000160008282829054906101000a900463ffffffff1661027c9190610493565b92506101000a81548163ffffffff021916908363ffffffff1602179055505050565b600080fd5b600073ffffffffffffffffffffffffffffffffffffffff82169050919050565b60006102ce826102a3565b9050919050565b6102de816102c3565b81146102e957600080fd5b50565b6000813590506102fb816102d5565b92915050565b600080604083850312156103185761031761029e565b5b6000610326858286016102ec565b9250506020610337858286016102ec565b9150509250929050565b600063ffffffff82169050919050565b61035a81610341565b82525050565b60006020820190506103756000830184610351565b92915050565b61038481610341565b811461038f57600080fd5b50565b6000813590506103a18161037b565b92915050565b600080604083850312156103be576103bd61029e565b5b60006103cc858286016102ec565b92505060206103dd85828601610392565b9150509250929050565b600082825260208201905092915050565b7f416d6f756e74206d75737420626520706f736974697665000000000000000000600082015250565b600061042e6017836103e7565b9150610439826103f8565b602082019050919050565b6000602082019050818103600083015261045d81610421565b9050919050565b7f4e487b7100000000000000000000000000000000000000000000000000000000600052601160045260246000fd5b600061049e82610341565b91506104a983610341565b9250828201905063ffffffff8111156104c5576104c4610464565b5b9291505056fea264697066735822122099790865380e9e79af7d011cf18800ee649a811ff809245bfa8b97d674ed04b964736f6c63430008110033",
  "linkReferences": {},
  "deployedLinkReferences": {}
}