{
  "_format": "hh-sol-artifact-1",
  "contractName": "Splitwise",
  "sourceName": "contracts/mycontract.sol",
  "abi": [
    {
      "anonymous": false,
      "inputs": [
        {
          "indexed": true,
          "internalType": "address",
          "name": "debtor",
          "type": "address"
        },
        {
          "indexed": true,
          "internalType": "address",
          "name": "creditor",
          "type": "address"
        },
        {
          "indexed": false,
          "internalType": "uint32",
          "name": "amount",
          "type": "uint32"
        }
      ],
      "name": "IOUAdded",
      "type": "event"
    },
    {
      "inputs": [
        {
          "internalType": "address",
          "name": "creditor",
          "type": "address"
        },
        {
          "internalType": "uint32",
          "name": "amount",
          "type": "uint32"
        },
        {
          "internalType": "address[]",
          "name": "cycle",
          "type": "address[]"
        }
      ],
      "name": "add_IOU",
      "outputs": [],
      "stateMutability": "nonpayable",
      "type": "function"
    },
    {
      "inputs": [
        {
          "internalType": "address",
          "name": "",
          "type": "address"
        },
        {
          "internalType": "address",
          "name": "",
          "type": "address"
        }
      ],
      "name": "debts",
      "outputs": [
        {
          "internalType": "uint32",
          "name": "amount",
          "type": "uint32"
        },
        {
          "internalType": "bool",
          "name": "exists",
          "type": "bool"
        }
      ],
      "stateMutability": "view",
      "type": "function"
    },
    {
      "inputs": [
        {
          "internalType": "address",
          "name": "",
          "type": "address"
        }
      ],
      "name": "lastActive",
      "outputs": [
        {
          "internalType": "uint256",
          "name": "",
          "type": "uint256"
        }
      ],
      "stateMutability": "view",
      "type": "function"
    },
    {
      "inputs": [
        {
          "internalType": "address",
          "name": "debtor",
          "type": "address"
        },
        {
          "internalType": "address",
          "name": "creditor",
          "type": "address"
        }
      ],
      "name": "lookup",
      "outputs": [
        {
          "internalType": "uint32",
          "name": "ret",
          "type": "uint32"
        }
      ],
      "stateMutability": "view",
      "type": "function"
    }
  ],
  "bytecode": "0x608060405234801561001057600080fd5b506111fa806100206000396000f3fe608060405234801561001057600080fd5b506004361061004c5760003560e01c80634ac1c33d14610051578063713584a614610082578063c2ec28d6146100b2578063dd033b8d146100e2575b600080fd5b61006b60048036038101906100669190610cb6565b6100fe565b604051610079929190610d30565b60405180910390f35b61009c60048036038101906100979190610cb6565b61014c565b6040516100a99190610d59565b60405180910390f35b6100cc60048036038101906100c79190610d74565b6101e5565b6040516100d99190610dba565b60405180910390f35b6100fc60048036038101906100f79190610f5a565b6101fd565b005b6000602052816000526040600020602052806000526040600020600091509150508060000160009054906101000a900463ffffffff16908060000160049054906101000a900460ff16905082565b60008060008473ffffffffffffffffffffffffffffffffffffffff1673ffffffffffffffffffffffffffffffffffffffff16815260200190815260200160002060008373ffffffffffffffffffffffffffffffffffffffff1673ffffffffffffffffffffffffffffffffffffffff16815260200190815260200160002060000160009054906101000a900463ffffffff16905092915050565b60016020528060005260406000206000915090505481565b3373ffffffffffffffffffffffffffffffffffffffff168373ffffffffffffffffffffffffffffffffffffffff160361026b576040517f08c379a000000000000000000000000000000000000000000000000000000000815260040161026290611026565b60405180910390fd5b816000803373ffffffffffffffffffffffffffffffffffffffff1673ffffffffffffffffffffffffffffffffffffffff16815260200190815260200160002060008573ffffffffffffffffffffffffffffffffffffffff1673ffffffffffffffffffffffffffffffffffffffff16815260200190815260200160002060000160008282829054906101000a900463ffffffff166103089190611075565b92506101000a81548163ffffffff021916908363ffffffff16021790555060016000803373ffffffffffffffffffffffffffffffffffffffff1673ffffffffffffffffffffffffffffffffffffffff16815260200190815260200160002060008573ffffffffffffffffffffffffffffffffffffffff1673ffffffffffffffffffffffffffffffffffffffff16815260200190815260200160002060000160046101000a81548160ff02191690831515021790555042600160003373ffffffffffffffffffffffffffffffffffffffff1673ffffffffffffffffffffffffffffffffffffffff1681526020019081526020016000208190555042600160008573ffffffffffffffffffffffffffffffffffffffff1673ffffffffffffffffffffffffffffffffffffffff168152602001908152602001600020819055508273ffffffffffffffffffffffffffffffffffffffff163373ffffffffffffffffffffffffffffffffffffffff167f440d12aa55d392761d1714333c8792748728af358c02f3ee342424b843a9c0d6846040516104a29190610d59565b60405180910390a36000815111156104be576104bd816104c3565b5b505050565b600080600083600185516104d791906110ad565b815181106104e8576104e76110e1565b5b602002602001015173ffffffffffffffffffffffffffffffffffffffff1673ffffffffffffffffffffffffffffffffffffffff1681526020019081526020016000206000836000815181106105405761053f6110e1565b5b602002602001015173ffffffffffffffffffffffffffffffffffffffff1673ffffffffffffffffffffffffffffffffffffffff16815260200190815260200160002060000160009054906101000a900463ffffffff16905060005b600183516105a991906110ad565b8110156106af5760008060008584815181106105c8576105c76110e1565b5b602002602001015173ffffffffffffffffffffffffffffffffffffffff1673ffffffffffffffffffffffffffffffffffffffff16815260200190815260200160002060008560018561061a9190611110565b8151811061062b5761062a6110e1565b5b602002602001015173ffffffffffffffffffffffffffffffffffffffff1673ffffffffffffffffffffffffffffffffffffffff16815260200190815260200160002060000160009054906101000a900463ffffffff1690508263ffffffff168163ffffffff16101561069b578092505b5080806106a790611144565b91505061059b565b5060005b600183516106c191906110ad565b81101561098a57816000808584815181106106df576106de6110e1565b5b602002602001015173ffffffffffffffffffffffffffffffffffffffff1673ffffffffffffffffffffffffffffffffffffffff1681526020019081526020016000206000856001856107319190611110565b81518110610742576107416110e1565b5b602002602001015173ffffffffffffffffffffffffffffffffffffffff1673ffffffffffffffffffffffffffffffffffffffff16815260200190815260200160002060000160008282829054906101000a900463ffffffff166107a5919061118c565b92506101000a81548163ffffffff021916908363ffffffff16021790555060008060008584815181106107db576107da6110e1565b5b602002602001015173ffffffffffffffffffffffffffffffffffffffff1673ffffffffffffffffffffffffffffffffffffffff16815260200190815260200160002060008560018561082d9190611110565b8151811061083e5761083d6110e1565b5b602002602001015173ffffffffffffffffffffffffffffffffffffffff1673ffffffffffffffffffffffffffffffffffffffff16815260200190815260200160002060000160009054906101000a900463ffffffff1663ffffffff16036109775760008060008584815181106108b7576108b66110e1565b5b602002602001015173ffffffffffffffffffffffffffffffffffffffff1673ffffffffffffffffffffffffffffffffffffffff1681526020019081526020016000206000856001856109099190611110565b8151811061091a576109196110e1565b5b602002602001015173ffffffffffffffffffffffffffffffffffffffff1673ffffffffffffffffffffffffffffffffffffffff16815260200190815260200160002060000160046101000a81548160ff0219169083151502179055505b808061098290611144565b9150506106b3565b5080600080846001865161099e91906110ad565b815181106109af576109ae6110e1565b5b602002602001015173ffffffffffffffffffffffffffffffffffffffff1673ffffffffffffffffffffffffffffffffffffffff168152602001908152602001600020600084600081518110610a0757610a066110e1565b5b602002602001015173ffffffffffffffffffffffffffffffffffffffff1673ffffffffffffffffffffffffffffffffffffffff16815260200190815260200160002060000160008282829054906101000a900463ffffffff16610a6a919061118c565b92506101000a81548163ffffffff021916908363ffffffff16021790555060008060008460018651610a9c91906110ad565b81518110610aad57610aac6110e1565b5b602002602001015173ffffffffffffffffffffffffffffffffffffffff1673ffffffffffffffffffffffffffffffffffffffff168152602001908152602001600020600084600081518110610b0557610b046110e1565b5b602002602001015173ffffffffffffffffffffffffffffffffffffffff1673ffffffffffffffffffffffffffffffffffffffff16815260200190815260200160002060000160009054906101000a900463ffffffff1663ffffffff1603610c405760008060008460018651610b7a91906110ad565b81518110610b8b57610b8a6110e1565b5b602002602001015173ffffffffffffffffffffffffffffffffffffffff1673ffffffffffffffffffffffffffffffffffffffff168152602001908152602001600020600084600081518110610be357610be26110e1565b5b602002602001015173ffffffffffffffffffffffffffffffffffffffff1673ffffffffffffffffffffffffffffffffffffffff16815260200190815260200160002060000160046101000a81548160ff0219169083151502179055505b5050565b6000604051905090565b600080fd5b600080fd5b600073ffffffffffffffffffffffffffffffffffffffff82169050919050565b6000610c8382610c58565b9050919050565b610c9381610c78565b8114610c9e57600080fd5b50565b600081359050610cb081610c8a565b92915050565b60008060408385031215610ccd57610ccc610c4e565b5b6000610cdb85828601610ca1565b9250506020610cec85828601610ca1565b9150509250929050565b600063ffffffff82169050919050565b610d0f81610cf6565b82525050565b60008115159050919050565b610d2a81610d15565b82525050565b6000604082019050610d456000830185610d06565b610d526020830184610d21565b9392505050565b6000602082019050610d6e6000830184610d06565b92915050565b600060208284031215610d8a57610d89610c4e565b5b6000610d9884828501610ca1565b91505092915050565b6000819050919050565b610db481610da1565b82525050565b6000602082019050610dcf6000830184610dab565b92915050565b610dde81610cf6565b8114610de957600080fd5b50565b600081359050610dfb81610dd5565b92915050565b600080fd5b6000601f19601f8301169050919050565b7f4e487b7100000000000000000000000000000000000000000000000000000000600052604160045260246000fd5b610e4f82610e06565b810181811067ffffffffffffffff82111715610e6e57610e6d610e17565b5b80604052505050565b6000610e81610c44565b9050610e8d8282610e46565b919050565b600067ffffffffffffffff821115610ead57610eac610e17565b5b602082029050602081019050919050565b600080fd5b6000610ed6610ed184610e92565b610e77565b90508083825260208201905060208402830185811115610ef957610ef8610ebe565b5b835b81811015610f225780610f0e8882610ca1565b845260208401935050602081019050610efb565b5050509392505050565b600082601f830112610f4157610f40610e01565b5b8135610f51848260208601610ec3565b91505092915050565b600080600060608486031215610f7357610f72610c4e565b5b6000610f8186828701610ca1565b9350506020610f9286828701610dec565b925050604084013567ffffffffffffffff811115610fb357610fb2610c53565b5b610fbf86828701610f2c565b9150509250925092565b600082825260208201905092915050565b7f596f752063616e6e6f74206f776520796f757273656c66000000000000000000600082015250565b6000611010601783610fc9565b915061101b82610fda565b602082019050919050565b6000602082019050818103600083015261103f81611003565b9050919050565b7f4e487b7100000000000000000000000000000000000000000000000000000000600052601160045260246000fd5b600061108082610cf6565b915061108b83610cf6565b9250828201905063ffffffff8111156110a7576110a6611046565b5b92915050565b60006110b882610da1565b91506110c383610da1565b92508282039050818111156110db576110da611046565b5b92915050565b7f4e487b7100000000000000000000000000000000000000000000000000000000600052603260045260246000fd5b600061111b82610da1565b915061112683610da1565b925082820190508082111561113e5761113d611046565b5b92915050565b600061114f82610da1565b91507fffffffffffffffffffffffffffffffffffffffffffffffffffffffffffffffff820361118157611180611046565b5b600182019050919050565b600061119782610cf6565b91506111a283610cf6565b9250828203905063ffffffff8111156111be576111bd611046565b5b9291505056fea2646970667358221220b79b270455a988c731f7ad1c3162fc71aca6d83092d745f6ae8e46395c0aa30e64736f6c63430008110033",
  "linkReferences": {},
  "deployedLinkReferences": {}
}