{
  "_format": "hh-sol-artifact-1",
  "contractName": "TokenExchange",
  "sourceName": "contracts/exchange.sol",
  "abi": [
    {
      "inputs": [],
      "stateMutability": "nonpayable",
      "type": "constructor"
    },
    {
      "anonymous": false,
      "inputs": [
        {
          "indexed": true,
          "internalType": "address",
          "name": "previousOwner",
          "type": "address"
        },
        {
          "indexed": true,
          "internalType": "address",
          "name": "newOwner",
          "type": "address"
        }
      ],
      "name": "OwnershipTransferred",
      "type": "event"
    },
    {
      "inputs": [],
      "name": "addLiquidity",
      "outputs": [],
      "stateMutability": "payable",
      "type": "function"
    },
    {
      "inputs": [
        {
          "internalType": "uint256",
          "name": "amountTokens",
          "type": "uint256"
        }
      ],
      "name": "createPool",
      "outputs": [],
      "stateMutability": "payable",
      "type": "function"
    },
    {
      "inputs": [],
      "name": "exchange_name",
      "outputs": [
        {
          "internalType": "string",
          "name": "",
          "type": "string"
        }
      ],
      "stateMutability": "view",
      "type": "function"
    },
    {
      "inputs": [],
      "name": "getReserves",
      "outputs": [
        {
          "internalType": "uint256",
          "name": "",
          "type": "uint256"
        },
        {
          "internalType": "uint256",
          "name": "",
          "type": "uint256"
        }
      ],
      "stateMutability": "view",
      "type": "function"
    },
    {
      "inputs": [],
      "name": "getSwapFee",
      "outputs": [
        {
          "internalType": "uint256",
          "name": "",
          "type": "uint256"
        },
        {
          "internalType": "uint256",
          "name": "",
          "type": "uint256"
        }
      ],
      "stateMutability": "view",
      "type": "function"
    },
    {
      "inputs": [],
      "name": "owner",
      "outputs": [
        {
          "internalType": "address",
          "name": "",
          "type": "address"
        }
      ],
      "stateMutability": "view",
      "type": "function"
    },
    {
      "inputs": [],
      "name": "removeAllLiquidity",
      "outputs": [],
      "stateMutability": "payable",
      "type": "function"
    },
    {
      "inputs": [
        {
          "internalType": "uint256",
          "name": "amountETH",
          "type": "uint256"
        }
      ],
      "name": "removeLiquidity",
      "outputs": [],
      "stateMutability": "payable",
      "type": "function"
    },
    {
      "inputs": [],
      "name": "renounceOwnership",
      "outputs": [],
      "stateMutability": "nonpayable",
      "type": "function"
    },
    {
      "inputs": [],
      "name": "swapETHForTokens",
      "outputs": [],
      "stateMutability": "payable",
      "type": "function"
    },
    {
      "inputs": [
        {
          "internalType": "uint256",
          "name": "amountTokens",
          "type": "uint256"
        }
      ],
      "name": "swapTokensForETH",
      "outputs": [],
      "stateMutability": "payable",
      "type": "function"
    },
    {
      "inputs": [],
      "name": "token",
      "outputs": [
        {
          "internalType": "contract Token",
          "name": "",
          "type": "address"
        }
      ],
      "stateMutability": "view",
      "type": "function"
    },
    {
      "inputs": [
        {
          "internalType": "address",
          "name": "newOwner",
          "type": "address"
        }
      ],
      "name": "transferOwnership",
      "outputs": [],
      "stateMutability": "nonpayable",
      "type": "function"
    }
  ],
  "bytecode": "0x608060405260405180602001604052806000815250600190816200002491906200042c565b50600260009054906101000a900473ffffffffffffffffffffffffffffffffffffffff16600360006101000a81548173ffffffffffffffffffffffffffffffffffffffff021916908373ffffffffffffffffffffffffffffffffffffffff16021790555060006004556000600555600060065560006007556000600a556003600b556064600c55620186a0600e55348015620000bf57600080fd5b50620000e0620000d4620000e660201b60201c565b620000ee60201b60201c565b62000513565b600033905090565b60008060009054906101000a900473ffffffffffffffffffffffffffffffffffffffff169050816000806101000a81548173ffffffffffffffffffffffffffffffffffffffff021916908373ffffffffffffffffffffffffffffffffffffffff1602179055508173ffffffffffffffffffffffffffffffffffffffff168173ffffffffffffffffffffffffffffffffffffffff167f8be0079c531659141344cd1fd0a4f28419497f9722a3daafe3b4186f6b6457e060405160405180910390a35050565b600081519050919050565b7f4e487b7100000000000000000000000000000000000000000000000000000000600052604160045260246000fd5b7f4e487b7100000000000000000000000000000000000000000000000000000000600052602260045260246000fd5b600060028204905060018216806200023457607f821691505b6020821081036200024a5762000249620001ec565b5b50919050565b60008190508160005260206000209050919050565b60006020601f8301049050919050565b600082821b905092915050565b600060088302620002b47fffffffffffffffffffffffffffffffffffffffffffffffffffffffffffffffff8262000275565b620002c0868362000275565b95508019841693508086168417925050509392505050565b6000819050919050565b6000819050919050565b60006200030d620003076200030184620002d8565b620002e2565b620002d8565b9050919050565b6000819050919050565b6200032983620002ec565b62000341620003388262000314565b84845462000282565b825550505050565b600090565b6200035862000349565b620003658184846200031e565b505050565b5b818110156200038d57620003816000826200034e565b6001810190506200036b565b5050565b601f821115620003dc57620003a68162000250565b620003b18462000265565b81016020851015620003c1578190505b620003d9620003d08562000265565b8301826200036a565b50505b505050565b600082821c905092915050565b60006200040160001984600802620003e1565b1980831691505092915050565b60006200041c8383620003ee565b9150826002028217905092915050565b6200043782620001b2565b67ffffffffffffffff811115620004535762000452620001bd565b5b6200045f82546200021b565b6200046c82828562000391565b600060209050601f831160018114620004a457600084156200048f578287015190505b6200049b85826200040e565b8655506200050b565b601f198416620004b48662000250565b60005b82811015620004de57848901518255600182019150602085019450602081019050620004b7565b86831015620004fe5784890151620004fa601f891682620003ee565b8355505b6001600288020188555050505b505050505050565b611e0a80620005236000396000f3fe6080604052600436106100c25760003560e01c8063d4cadf681161007f578063e8078d9411610059578063e8078d94146101c9578063f2fde38b146101d3578063f694f7d1146101fc578063fc0c546a14610227576100c2565b8063d4cadf6814610177578063d592cbf6146101a3578063e56a645e146101ad576100c2565b80630902f1ac146100c7578063715018a6146100f35780638259e6a01461010a57806388a780e5146101265780638da5cb5b146101305780639c8f9f231461015b575b600080fd5b3480156100d357600080fd5b506100dc610252565b6040516100ea9291906113dc565b60405180910390f35b3480156100ff57600080fd5b50610108610263565b005b610124600480360381019061011f9190611436565b610277565b005b61012e610627565b005b34801561013c57600080fd5b506101456108fc565b60405161015291906114a4565b60405180910390f35b61017560048036038101906101709190611436565b610925565b005b34801561018357600080fd5b5061018c610bc7565b60405161019a9291906113dc565b60405180910390f35b6101ab610bd8565b005b6101c760048036038101906101c29190611436565b610d6c565b005b6101d1610eff565b005b3480156101df57600080fd5b506101fa60048036038101906101f591906114eb565b611142565b005b34801561020857600080fd5b506102116111c5565b60405161021e91906115a8565b60405180910390f35b34801561023357600080fd5b5061023c611253565b6040516102499190611629565b60405180910390f35b600080600554600454915091509091565b61026b611279565b61027560006112f7565b565b61027f611279565b6000600454146102c4576040517f08c379a00000000000000000000000000000000000000000000000000000000081526004016102bb90611690565b60405180910390fd5b600060055414610309576040517f08c379a0000000000000000000000000000000000000000000000000000000008152600401610300906116fc565b60405180910390fd5b6000341161034c576040517f08c379a000000000000000000000000000000000000000000000000000000000815260040161034390611768565b60405180910390fd5b6000600360009054906101000a900473ffffffffffffffffffffffffffffffffffffffff1673ffffffffffffffffffffffffffffffffffffffff166370a08231336040518263ffffffff1660e01b81526004016103a991906114a4565b602060405180830381865afa1580156103c6573d6000803e3d6000fd5b505050506040513d601f19601f820116820180604052508101906103ea919061179d565b90508082111561042f576040517f08c379a00000000000000000000000000000000000000000000000000000000081526004016104269061183c565b60405180910390fd5b60008211610472576040517f08c379a0000000000000000000000000000000000000000000000000000000008152600401610469906118a8565b60405180910390fd5b600360009054906101000a900473ffffffffffffffffffffffffffffffffffffffff1673ffffffffffffffffffffffffffffffffffffffff166323b872dd3330856040518463ffffffff1660e01b81526004016104d1939291906118c8565b6020604051808303816000875af11580156104f0573d6000803e3d6000fd5b505050506040513d601f19601f820116820180604052508101906105149190611937565b50600360009054906101000a900473ffffffffffffffffffffffffffffffffffffffff1673ffffffffffffffffffffffffffffffffffffffff166370a08231306040518263ffffffff1660e01b815260040161057091906114a4565b602060405180830381865afa15801561058d573d6000803e3d6000fd5b505050506040513d601f19601f820116820180604052508101906105b1919061179d565b600481905550346005819055506005546004546105ce9190611993565b600d81905550620186a0600a819055506064600860003373ffffffffffffffffffffffffffffffffffffffff1673ffffffffffffffffffffffffffffffffffffffff168152602001908152602001600020819055505050565b6000600860003373ffffffffffffffffffffffffffffffffffffffff1673ffffffffffffffffffffffffffffffffffffffff1681526020019081526020016000205490506000600a546005548361067e9190611993565b6106889190611a04565b90506000600a546004548461069d9190611993565b6106a79190611a04565b90506000600860003373ffffffffffffffffffffffffffffffffffffffff1673ffffffffffffffffffffffffffffffffffffffff168152602001908152602001600020541161072b576040517f08c379a000000000000000000000000000000000000000000000000000000000815260040161072290611a81565b60405180910390fd5b6000600860003373ffffffffffffffffffffffffffffffffffffffff1673ffffffffffffffffffffffffffffffffffffffff1681526020019081526020016000208190555082600a60008282546107829190611aa1565b92505081905550816005600082825461079b9190611aa1565b9250508190555080600460008282546107b49190611aa1565b925050819055506005546004546107cb9190611993565b600d81905550600360009054906101000a900473ffffffffffffffffffffffffffffffffffffffff1673ffffffffffffffffffffffffffffffffffffffff1663a9059cbb33836040518363ffffffff1660e01b815260040161082e929190611ad5565b6020604051808303816000875af115801561084d573d6000803e3d6000fd5b505050506040513d601f19601f820116820180604052508101906108719190611937565b6108b0576040517f08c379a00000000000000000000000000000000000000000000000000000000081526004016108a790611b4a565b60405180910390fd5b3373ffffffffffffffffffffffffffffffffffffffff166108fc839081150290604051600060405180830381858888f193505050501580156108f6573d6000803e3d6000fd5b50505050565b60008060009054906101000a900473ffffffffffffffffffffffffffffffffffffffff16905090565b6000600554600a54836109389190611993565b6109429190611a04565b90506000600554600454846109579190611993565b6109619190611a04565b905081600860003373ffffffffffffffffffffffffffffffffffffffff1673ffffffffffffffffffffffffffffffffffffffff1681526020019081526020016000205410156109e5576040517f08c379a00000000000000000000000000000000000000000000000000000000081526004016109dc90611bb6565b60405180910390fd5b81600860003373ffffffffffffffffffffffffffffffffffffffff1673ffffffffffffffffffffffffffffffffffffffff1681526020019081526020016000206000828254610a349190611aa1565b9250508190555081600a6000828254610a4d9190611aa1565b925050819055508260056000828254610a669190611aa1565b925050819055508060046000828254610a7f9190611aa1565b92505081905550600554600454610a969190611993565b600d81905550600360009054906101000a900473ffffffffffffffffffffffffffffffffffffffff1673ffffffffffffffffffffffffffffffffffffffff1663a9059cbb33836040518363ffffffff1660e01b8152600401610af9929190611ad5565b6020604051808303816000875af1158015610b18573d6000803e3d6000fd5b505050506040513d601f19601f82011682018060405250810190610b3c9190611937565b610b7b576040517f08c379a0000000000000000000000000000000000000000000000000000000008152600401610b7290611b4a565b60405180910390fd5b3373ffffffffffffffffffffffffffffffffffffffff166108fc849081150290604051600060405180830381858888f19350505050158015610bc1573d6000803e3d6000fd5b50505050565b600080600b54600c54915091509091565b6000349050600060055460045483610bf09190611993565b610bfa9190611a04565b9050816005541015610c41576040517f08c379a0000000000000000000000000000000000000000000000000000000008152600401610c3890611c22565b60405180910390fd5b8160056000828254610c539190611c42565b925050819055508060046000828254610c6c9190611aa1565b92505081905550600554600454610c839190611993565b600d81905550600360009054906101000a900473ffffffffffffffffffffffffffffffffffffffff1673ffffffffffffffffffffffffffffffffffffffff1663a9059cbb33836040518363ffffffff1660e01b8152600401610ce6929190611ad5565b6020604051808303816000875af1158015610d05573d6000803e3d6000fd5b505050506040513d601f19601f82011682018060405250810190610d299190611937565b610d68576040517f08c379a0000000000000000000000000000000000000000000000000000000008152600401610d5f90611b4a565b60405180910390fd5b5050565b600060045460055483610d7f9190611993565b610d899190611a04565b9050600360009054906101000a900473ffffffffffffffffffffffffffffffffffffffff1673ffffffffffffffffffffffffffffffffffffffff166323b872dd3330856040518463ffffffff1660e01b8152600401610dea939291906118c8565b6020604051808303816000875af1158015610e09573d6000803e3d6000fd5b505050506040513d601f19601f82011682018060405250810190610e2d9190611937565b610e6c576040517f08c379a0000000000000000000000000000000000000000000000000000000008152600401610e6390611b4a565b60405180910390fd5b8160046000828254610e7e9190611c42565b925050819055508060056000828254610e979190611aa1565b92505081905550600554600454610eae9190611993565b600d819055503373ffffffffffffffffffffffffffffffffffffffff166108fc829081150290604051600060405180830381858888f19350505050158015610efa573d6000803e3d6000fd5b505050565b6000349050600060055460045483610f179190611993565b610f219190611a04565b9050600360009054906101000a900473ffffffffffffffffffffffffffffffffffffffff1673ffffffffffffffffffffffffffffffffffffffff166323b872dd3330846040518463ffffffff1660e01b8152600401610f82939291906118c8565b6020604051808303816000875af1158015610fa1573d6000803e3d6000fd5b505050506040513d601f19601f82011682018060405250810190610fc59190611937565b611004576040517f08c379a0000000000000000000000000000000000000000000000000000000008152600401610ffb90611b4a565b60405180910390fd5b80600460008282546110169190611c42565b92505081905550816005600082825461102f9190611c42565b925050819055506005546004546110469190611993565b600d819055506000600554600a548461105f9190611993565b6110699190611a04565b905080600860003373ffffffffffffffffffffffffffffffffffffffff1673ffffffffffffffffffffffffffffffffffffffff16815260200190815260200160002060008282546110ba9190611c42565b9250508190555080600a60008282546110d39190611c42565b925050819055506009339080600181540180825580915050600190039060005260206000200160009091909190916101000a81548173ffffffffffffffffffffffffffffffffffffffff021916908373ffffffffffffffffffffffffffffffffffffffff160217905550505050565b61114a611279565b600073ffffffffffffffffffffffffffffffffffffffff168173ffffffffffffffffffffffffffffffffffffffff16036111b9576040517f08c379a00000000000000000000000000000000000000000000000000000000081526004016111b090611ce8565b60405180910390fd5b6111c2816112f7565b50565b600180546111d290611d37565b80601f01602080910402602001604051908101604052809291908181526020018280546111fe90611d37565b801561124b5780601f106112205761010080835404028352916020019161124b565b820191906000526020600020905b81548152906001019060200180831161122e57829003601f168201915b505050505081565b600360009054906101000a900473ffffffffffffffffffffffffffffffffffffffff1681565b6112816113bb565b73ffffffffffffffffffffffffffffffffffffffff1661129f6108fc565b73ffffffffffffffffffffffffffffffffffffffff16146112f5576040517f08c379a00000000000000000000000000000000000000000000000000000000081526004016112ec90611db4565b60405180910390fd5b565b60008060009054906101000a900473ffffffffffffffffffffffffffffffffffffffff169050816000806101000a81548173ffffffffffffffffffffffffffffffffffffffff021916908373ffffffffffffffffffffffffffffffffffffffff1602179055508173ffffffffffffffffffffffffffffffffffffffff168173ffffffffffffffffffffffffffffffffffffffff167f8be0079c531659141344cd1fd0a4f28419497f9722a3daafe3b4186f6b6457e060405160405180910390a35050565b600033905090565b6000819050919050565b6113d6816113c3565b82525050565b60006040820190506113f160008301856113cd565b6113fe60208301846113cd565b9392505050565b600080fd5b611413816113c3565b811461141e57600080fd5b50565b6000813590506114308161140a565b92915050565b60006020828403121561144c5761144b611405565b5b600061145a84828501611421565b91505092915050565b600073ffffffffffffffffffffffffffffffffffffffff82169050919050565b600061148e82611463565b9050919050565b61149e81611483565b82525050565b60006020820190506114b96000830184611495565b92915050565b6114c881611483565b81146114d357600080fd5b50565b6000813590506114e5816114bf565b92915050565b60006020828403121561150157611500611405565b5b600061150f848285016114d6565b91505092915050565b600081519050919050565b600082825260208201905092915050565b60005b83811015611552578082015181840152602081019050611537565b60008484015250505050565b6000601f19601f8301169050919050565b600061157a82611518565b6115848185611523565b9350611594818560208601611534565b61159d8161155e565b840191505092915050565b600060208201905081810360008301526115c2818461156f565b905092915050565b6000819050919050565b60006115ef6115ea6115e584611463565b6115ca565b611463565b9050919050565b6000611601826115d4565b9050919050565b6000611613826115f6565b9050919050565b61162381611608565b82525050565b600060208201905061163e600083018461161a565b92915050565b7f546f6b656e20726573657276657320776173206e6f7420300000000000000000600082015250565b600061167a601883611523565b915061168582611644565b602082019050919050565b600060208201905081810360008301526116a98161166d565b9050919050565b7f45544820726573657276657320776173206e6f7420302e000000000000000000600082015250565b60006116e6601783611523565b91506116f1826116b0565b602082019050919050565b60006020820190508181036000830152611715816116d9565b9050919050565b7f4e6565642065746820746f2063726561746520706f6f6c2e0000000000000000600082015250565b6000611752601883611523565b915061175d8261171c565b602082019050919050565b6000602082019050818103600083015261178181611745565b9050919050565b6000815190506117978161140a565b92915050565b6000602082840312156117b3576117b2611405565b5b60006117c184828501611788565b91505092915050565b7f4e6f74206861766520656e6f75676820746f6b656e7320746f2063726561746560008201527f2074686520706f6f6c0000000000000000000000000000000000000000000000602082015250565b6000611826602983611523565b9150611831826117ca565b604082019050919050565b6000602082019050818103600083015261185581611819565b9050919050565b7f4e65656420746f6b656e7320746f2063726561746520706f6f6c2e0000000000600082015250565b6000611892601b83611523565b915061189d8261185c565b602082019050919050565b600060208201905081810360008301526118c181611885565b9050919050565b60006060820190506118dd6000830186611495565b6118ea6020830185611495565b6118f760408301846113cd565b949350505050565b60008115159050919050565b611914816118ff565b811461191f57600080fd5b50565b6000815190506119318161190b565b92915050565b60006020828403121561194d5761194c611405565b5b600061195b84828501611922565b91505092915050565b7f4e487b7100000000000000000000000000000000000000000000000000000000600052601160045260246000fd5b600061199e826113c3565b91506119a9836113c3565b92508282026119b7816113c3565b915082820484148315176119ce576119cd611964565b5b5092915050565b7f4e487b7100000000000000000000000000000000000000000000000000000000600052601260045260246000fd5b6000611a0f826113c3565b9150611a1a836113c3565b925082611a2a57611a296119d5565b5b828204905092915050565b7f4e6f206c69717569646974792070726f76696465640000000000000000000000600082015250565b6000611a6b601583611523565b9150611a7682611a35565b602082019050919050565b60006020820190508181036000830152611a9a81611a5e565b9050919050565b6000611aac826113c3565b9150611ab7836113c3565b9250828203905081811115611acf57611ace611964565b5b92915050565b6000604082019050611aea6000830185611495565b611af760208301846113cd565b9392505050565b7f5472616e73666572206661696c65640000000000000000000000000000000000600082015250565b6000611b34600f83611523565b9150611b3f82611afe565b602082019050919050565b60006020820190508181036000830152611b6381611b27565b9050919050565b7f4e6f7420656e6f75676820736861726573000000000000000000000000000000600082015250565b6000611ba0601183611523565b9150611bab82611b6a565b602082019050919050565b60006020820190508181036000830152611bcf81611b93565b9050919050565b7f4e6f7420656e6f7567682045544820696e207265736572766573000000000000600082015250565b6000611c0c601a83611523565b9150611c1782611bd6565b602082019050919050565b60006020820190508181036000830152611c3b81611bff565b9050919050565b6000611c4d826113c3565b9150611c58836113c3565b9250828201905080821115611c7057611c6f611964565b5b92915050565b7f4f776e61626c653a206e6577206f776e657220697320746865207a65726f206160008201527f6464726573730000000000000000000000000000000000000000000000000000602082015250565b6000611cd2602683611523565b9150611cdd82611c76565b604082019050919050565b60006020820190508181036000830152611d0181611cc5565b9050919050565b7f4e487b7100000000000000000000000000000000000000000000000000000000600052602260045260246000fd5b60006002820490506001821680611d4f57607f821691505b602082108103611d6257611d61611d08565b5b50919050565b7f4f776e61626c653a2063616c6c6572206973206e6f7420746865206f776e6572600082015250565b6000611d9e602083611523565b9150611da982611d68565b602082019050919050565b60006020820190508181036000830152611dcd81611d91565b905091905056fea2646970667358221220a51ae55dc7310679877663e8aa569acfa3cf65cfb6eea955a288676f924c640e64736f6c63430008110033",
  "linkReferences": {},
  "deployedLinkReferences": {}
}